:020000040800F2
:10000000480A00209D010008E72100085D1E000845
:10001000E5210008A9020008512C0008000000009A
:10002000000000000000000000000000EB210008BC
:100030006903000800000000E9210008ED21000824
:10004000B7010008B7010008B7010008B7010008B0
:10005000B7010008B7010008B70100086B030008EA
:1000600071030008B701000877030008B701000812
:10007000B7010008B7010008B7010008B701000880
:10008000B7010008B7010008B7010008B701000870
:10009000B7010008B7010008B7010008B701000860
:1000A000B7010008B7010008B7010008B701000850
:1000B000B701000895220008A1220008B701000836
:1000C000B7010008B7010008B7010008B701000830
:1000D000B70100080D2A0008B7010008B7010008A1
:1000E000B7010008B7010008B7010008B701000810
:1000F000B7010008B7010008B7010008B701000800
:10010000B7010008B7010008AD220008B7010008D8
:10011000B7010008B7010008B7010008B7010008DF
:10012000B7010008B7010008AD020008B7010008D8
:10013000B7010008B7010008B7010008B7010008BF
:10014000B7010008B7010008B7010008B7010008AF
:10015000B7010008B7010008B9020008B70100089C
:10016000B7010008B7010008B7010008B70100088F
:10017000B7010008B7010008B7010008000000003F
:10018000B7010008B7010008DFF80CD000F07AF8DA
:1001900000480047912C0008480A00200648804784
:1001A00006480047FEE7FEE7FEE7FEE7FEE7FEE75C
:1001B000FEE7FEE7FEE7FEE785220008890100086A
:1001C0002DE9F05F0546002092469B46884606468C
:1001D000814640241BE0284641464746224600F01F
:1001E00041F853465A46C01A914110D31146184659
:1001F000224600F028F82D1A67EB01084F462246E8
:100200000120002100F01FF817EB00094E41201ECD
:10021000A4F10104DFDC484631462A464346BDE8E6
:10022000F09FD2B201E000F8012B491EFBD27047CB
:100230000022F6E710B513460A4604461946FFF7B2
:10024000F0FF204610BD202A04DB203A00FA02F11C
:10025000002070479140C2F1200320FA03F31943B4
:1002600090407047202A04DB203A21FA02F0002156
:10027000704721FA02F3D040C2F1200291400843B6
:1002800019467047064C074D06E0E06840F0010350
:1002900094E8070098471034AC42F6D3FFF778FF94
:1002A0003C2D00085C2D0008FEE70000014800F02E
:1002B00011B9000084050020014800F00BB90000CE
:1002C000E405002001681823CAB2103AB2FBF3F229
:1002D000054B6FF30901032A9B5CC36500D9091D17
:1002E00081650846704700001C2D000810B50146C6
:1002F00000208B698A6A4FF0C07453B1B3F5005F78
:1003000015D072B1012A0CD0022A0AD0032A09D1D1
:1003100004E01AB1012A06D0022A03D1C96AC90130
:1003200000D5012010BDC96AA142FAD010BD002A33
:10033000F7D0012AF2D0022AF3D0032AF3D010BD5D
:1003400030B50468256825F480252560046863605D
:100350008368402B036803D099600068C26030BD99
:100360009A600068C16030BD7047022000F024BA76
:10037000042000F021BA102000F01EBA72B6FEE789
:10038000094810B542688169514301630AD0427837
:100390000221064800F019FBBDE810400021044886
:1003A00001F0D4B910BD00000000002000000240A0
:1003B000F8040020094810B54268C16951434163FF
:1003C0000AD082788021064800F0FFFABDE810408C
:1003D0000021044801F0BAB910BD0000000000205F
:1003E0000000024068040020094810B54268016A14
:1003F000514381630BD0C2784FF40051054800F09F
:10040000E4FABDE810400021034801F09FB910BD97
:1004100000000020000C0240B00400202DE9F04153
:100420000446876D00F0D6FA064694F8350000259C
:10043000022806D08020606584F834500120BDE891
:10044000F0812068016821F016010160206841698F
:1004500021F080014161206C08B9A06C20B12068B6
:10046000016821F0080101602068016821F00101A4
:1004700001600CE000F0AEFA801B052807D92020AF
:100480006065032084F8350084F83450D7E720688D
:100490000068C007EED194F85C103F208840B86037
:1004A000012084F8350084F834500020C7E790F824
:1004B0003510022903D080214165012070470521B4
:1004C00080F835100068016821F00101016000200A
:1004D000704700002DE9F84304464FF00009CDF8BD
:1004E000009063484FF41651A56D0068B0FBF1F71A
:1004F0002E6894F85C10082000FA01F131420FD008
:1005000021680A6852070BD50A6822F004020A60C3
:1005100094F85C108840A860606D40F00100606550
:1005200094F85C104FF0010808FA01F0304208D04E
:1005300021684969090604D5A860606D40F0020091
:10054000606594F85C1004208840304208D021682F
:100550000968890704D5A860606D40F004006065F3
:1005600094F85C1010208840304218D02168096847
:10057000090714D5A86020680168490304D50068FC
:10058000000308D5A16C07E00168C90503D4016820
:1005900021F008010160216C09B12046884794F8D8
:1005A0005C1020208840304231D021680968C9069B
:1005B0002DD5A86094F8350005282068016806D07C
:1005C000490347D5006800031DD4616C1CE021F08D
:1005D000160101602068416921F080014161206CB1
:1005E00008B9A06C20B12068016821F00801016001
:1005F00094F85C103F208840A86084F8358084F827
:100600003490216D1FE0E16B09B120468847606D91
:1006100000282BD0606DC00714D0052084F8350069
:100620002068016821F0010101600098401C0090E1
:10063000B84203D820680068C007F6D184F8358036
:1006400084F83490E16C002910D001B02046BDE858
:10065000F04308470168C905D5D4016821F01001AD
:10066000016084F8358084F83490CCE7BDE8F883E5
:10067000640000202DE9F041044600F0ABF9064685
:100680005CB1022084F83500002584F834502068DD
:10069000016821F0010101600DE00120BDE8F08159
:1006A00000F098F9801B052805D9202060650320FB
:1006B00084F83500F2E720680068C007F0D12268AE
:1006C000116820480140D4E901031843D4E90336F6
:1006D0003343184363691843A3691843E369184314
:1006E000236A18430843616A042903D1D4E90B1330
:1006F00019430843106020684069666A20F00701CA
:1007000030460E43012704280CD1A06A0643E06A54
:1007100040B12046FFF7EAFD20B14020606584F833
:100720003570BAE7206846612046FFF7CBFD94F8A4
:100730005C203F2191408160656584F83570002020
:10074000ACE700003F8010F02DE9F0410446866DD3
:1007500090F83400002501280DD0012084F83400E1
:1007600094F835700020012F07D084F8340002255A
:100770002846BDE8F0810220FBE7022784F83570A7
:1007800060652046FFF7DCFD94F85C103F20884050
:10079000B0602068016841F016010160206C20B152
:1007A0002068016841F0080101602068016841F09B
:1007B00001010160DCE77047044910B50A68024294
:1007C00002D00860FFF7F7FF10BD0000143C0140A5
:1007D0002DE9F84FDFF8BCA1002201250AF1040B36
:1007E00003264FF00F090BF1040E00BF0B6805FA4A
:1007F00002F42340A34270D10F7907F00307012FC1
:1008000001D0022F16D187684FEA420806FA08FC89
:1008100027EA0C07D1F80CC00CFA08FC4CEA070CCC
:10082000C0F808C04768A7430C79C4F3001494408B
:100830003C4344600C79E443A4070AD0C4684FEAFF
:10084000420C06FA0CF7BC438F6807FA0CF72743F3
:10085000C7600C7904F00304022C12D1D40800EB19
:10086000840CDCF820405707FF0E09FA07F824EA49
:100870000804D1F8108008FA07F848EA0408CCF810
:10088000208004684FEA420C06FA0CF7BC430F794B
:1008900007F0030707FA0CF7274307604C6814F4C6
:1008A000403F70D03C4C276847F48047276024685D
:1008B00022F0030704F480440094384C07EB040C46
:1008C000DCF8084897074FEA177809FA08F7BC439D
:1008D000334FB84202D1002724E054E0314FB842F0
:1008E00001D101271EE0304FB84201D1022719E0A3
:1008F0002E4FB84201D1032714E02D4FB84201D149
:1009000004270FE02B4FB84201D105270AE02A4FF8
:10091000B84201D1062705E0284FB84201D1072788
:1009200000E0082707FA08F72743CCF80878DAF838
:1009300000405746D1F804C09C435FEACC3C00D548
:100940001C433C60DBF800405F46D1F804C09C4388
:100950005FEA8C3C00D51C433C60DEF800407746E3
:10096000D1F804C09C435FEACC2C00D51C433C600A
:10097000084F0C373C68D1F804C09C435FEA8C2CCC
:1009800000D51C433C60521C102AFFF42FAFBDE879
:10099000F88F0000003C0140443802400030014024
:1009A000000002400004024000080240000C024027
:1009B000001002400014024000180240001C0240D7
:1009C0000069084000D0012070470AB1816170477A
:1009D0000904FBE7014880687047000058000020C8
:1009E00002488168027811448160704758000020F5
:1009F0000B4810B5016841F400710160016841F4D1
:100A000080610160016841F480710160032000F0A1
:100A100071F8002000F006F800F024F8002010BD66
:100A2000003C024070B50D4D04464FF47A712878B1
:100A3000B1FBF0F00A490968B1FBF0F000F00CFBE3
:100A400048B9102C07D200222146501E00F032F87F
:100A500000206C6070BD012070BD000058000020B7
:100A6000640000200B4882B0016841F480410160BD
:100A7000006800F4804000900648001F016841F0C3
:100A800080510160006800F080500090052002B0A5
:100A900000F030B844380240002809DB00F01F02A3
:100AA000012191404009800000F1E020C0F80011D0
:100AB00070470000F0B40E4B1B680C46C3F30223D2
:100AC000C3F10705042D00D90425191D072901D2FA
:100AD000002300E0DB1E012606FA05F1491E214035
:100AE00099409E40761E16403143F0BC02F0B1B8EA
:100AF0000CED00E0064900F0070208684FF6FF031E
:100B0000184040EA0220034A104308607047000082
:100B10000CED00E00000FA052DE9F0470E46050057
:100B200065D0DFF81481D8F80000F7B200F00700B4
:100B3000B04207D288F80070D8F8000000F0070033
:100B4000B04254D128683D4C810712D5400703D5E7
:100B5000206840F4E05020602878000703D5206822
:100B600040F4604020602068A96820F0F00008434D
:100B700020602878C0072DD03049686808390128DE
:100B800012D0022813D0032811D009688907002940
:100B90002DDA216821F0030101432160FFF71AFFDC
:100BA000814641F2883A0EE009688903EFE7096857
:100BB0008901ECE7FFF70EFFA0EB0901514502D9CF
:100BC0000320BDE8F0872068696800F00C00B0EBF6
:100BD000810FEFD1D8F80010404601F00701B14273
:100BE00007D90770006800F00700B04201D001206B
:100BF000E7E72878400705D52068E96820F4E05049
:100C0000084320602878000706D52068296920F469
:100C1000604040EAC100206000F038F82168084ACE
:100C2000C1F30311515CC8400649086006480068DA
:100C3000FFF7F8FE0020C4E7003C024008380240FD
:100C4000242D0008640000205C00002004480549B1
:100C500000680968044AC1F38221515CC8407047AA
:100C60006400002008380240342D0008044805497B
:100C700000680968044AC1F34231515CC8407047BA
:100C80006400002008380240342D0008154810B5D3
:100C9000006810F00C02144813D04110042A0FD041
:100CA000082A0ED10F4C241F2268236802F03F024D
:100CB0005B0207D52068C0F38810A0FB010106E0A5
:100CC000084610BD2168C1F38811A1FB0001002373
:100CD000FFF776FA2168C1F30141491C4900B0FBD6
:100CE000F1F010BD083802400024F4002DE9F84F5F
:100CF00004006ED02078DFF84C93C007A9F10405FA
:100D00004AD009F104000168C1F38101012908D02A
:100D10000068C0F3810002280AD1D9F8000040021F
:100D200006D52868800337D560680028E1D033E015
:100D30006068B0F5803F10D0B0F5A02F286810D0C3
:100D400020F480302860286820F4802028606068C3
:100D5000A8B1FFF73FFE06460DE0286840F480305A
:100D6000F4E740F480202860F7E700BFFFF732FE89
:100D7000801B642873D828688003F7D50CE0FFF740
:100D800029FE064605E000BFFFF724FE801B64280D
:100D9000F0D828688003F7D42078DFF8AC82800789
:100DA0004FF0000A3ED5A748001D016811F00C0F56
:100DB00008D00068C0F3810002280BD1D9F80000E8
:100DC000400207D42868800716D5E068012800D1C2
:100DD00012E033E1E068B8B10120C8F80000FFF785
:100DE000F9FD064605E000BFFFF7F4FD801B022871
:100DF000C0D828688007F7D52868216920F0F80056
:100E000040EAC10028600DE0C8F800A0FFF7E2FD4D
:100E1000064604E0FFF7DEFD801B02281FD8286885
:100E20008007F7D42078000722D5864F874861696C
:100E3000703771B101210160FFF7CCFD064604E077
:100E4000FFF7C8FD801B022809D838688007F7D54E
:100E50000EE0C0F800A0FFF7BDFD064605E082E009
:100E6000FFF7B8FD801B02287DD838688007F7D4CB
:100E70002078400768D5DFF8CCB100270BF13C0B98
:100E8000DBF80000C0000BD4DBF8001041F080510B
:100E9000CBF80010DBF80000012700F08050009034
:100EA0006B4E3068C00510D4306840F480703060FC
:100EB000FFF790FD009005E0FFF78CFD0099401AC8
:100EC000022850D83068C005F6D55E4EA0686C3652
:100ED00001280FD00528306810D020F001003060C4
:100EE000306820F004003060A068B8B1FFF772FDF0
:100EF00000900FE0306840F00100F4E740F004009B
:100F00003060F7E7FFF766FD0099411A41F288303B
:100F1000814266D830688007F4D50EE0FFF75AFDAD
:100F2000009007E0FFF756FD0099411A41F2883022
:100F3000814256D830688007F4D42FB1DBF8001016
:100F400021F08051CBF80010A069C8B33D49091DBC
:100F50000968C1F3810102294AD00228504607D00E
:100F6000C8F8600000E03CE0FFF734FD04463BE0D9
:100F70004746C8F86000FFF72DFD064605E000BFB4
:100F8000FFF728FD801B02282BD828688001F7D4A2
:100F9000D4E907010843A16A2E4A490802EB01413E
:100FA000626A41EA8211084394F82C1040EA016118
:100FB000C9F8001001203866FFF70CFD044606E072
:100FC0003EE000BFFFF706FD001B022809D8286895
:100FD0008001F7D534E000BFFFF7FCFC001B0228BE
:100FE00002D90320BDE8F88F28688001F4D427E0F7
:100FF0000128F7D0D9F80000E26900F4800191429D
:101000001CD1226A00F03F01914217D147F6C0710E
:10101000626A0140B1EB821F10D1A26A4FF0FF3328
:1010200000F4403103EB5202B1EB024F06D194F8C9
:101030002C1000F07060B0EB016F01D00120D1E7FF
:101040000020CFE70438024000004742800E4742AC
:10105000007000400000FFFF10B5401EB0F1807F1F
:1010600001D3012010BD4FF0E02460610F21601713
:1010700001F0EFFD0020A06107202061002010BDDD
:101080007047704770B590F83C20012A32D0012497
:1010900080F83C40022280F83D2003685A689D6831
:1010A00022F070060A6832435A60134B02689A4273
:1010B00014D0B2F1804F11D0104B9A420ED0104B89
:1010C0009A420BD00F4B9A4208D00F4B9A4205D050
:1010D0000E4B9A4202D00E4B9A4204D1496825F039
:1010E00080031943916080F83D40002180F83C1056
:1010F000084670BD022070BD0000014000040040A1
:1011000000080040000C0040000401400040014085
:101110000018004010B5040003D094F83D0010B151
:1011200007E0012010BD002084F83C00204600F0BC
:101130001FF8022084F83D00211D206801F0BCF852
:10114000012084F8460084F83E0084F83F0084F8CB
:10115000400084F8410084F8420084F8430084F899
:10116000440084F8450084F83D00002010BD0000D4
:1011700008B51E4A01681E4891420ED1016841F02F
:10118000020101600068002200F0020000900221CC
:101190001D20FFF78FFC1D2022E0164A91420ED140
:1011A000016841F0040101600068002200F00400C1
:1011B000009002211E20FFF77DFC1E2010E00E4A49
:1011C000914211D1016841F00801016000680022DC
:1011D00000F00800009002213220FFF76BFC322063
:1011E000BDE80840FFF758BC08BD000000040040FF
:1011F0004038024000080040000C004090F83D10CC
:10120000012901D001207047022180F83D100068BB
:101210001149884214D0B0F1804F11D00F49884253
:101220000ED00F4988420BD00E49884208D00E4993
:10123000884205D00D49884202D00D49884204D128
:10124000816801F00701062903D0016841F001011E
:1012500001600020704700000000014000040040D1
:1012600000080040000C0040000401400040014024
:101270000018004070B5044690F83C000025012895
:1012800017D0012684F83C60022084F83D002068D5
:10129000826822F0770222F47F4282600868502838
:1012A00038D00DDC20284FD005DC90B3102811D1A8
:1012B0004AE0022070BD302846D040280AD13BE0E9
:1012C00060282FD070280DD0B0F5805F03D0B0F526
:1012D000005F12D0012584F83D60002084F83C00B6
:1012E000284670BDCB68D1E90121206801F055F88E
:1012F0002068816841F0770109E0CB68D1E90121DC
:10130000206801F04AF82068816841F480418160DA
:10131000E1E719E0CA684968206801F013F9502133
:10132000206806E0CA684968206801F01CF960215D
:10133000206801F03CF8CEE7CA684968206801F0EF
:1013400001F940212068F4E7226801461046F0E7E1
:10135000704770B50446006801694FF00005C94345
:10136000890715D4C168C943890711D4E91E0161F1
:1013700001202077206880698007204602D0FFF78F
:10138000E7FF04E000F0E6F8204600F079F9257761
:1013900020680169C943490717D4C168C94349078F
:1013A00013D46FF004010161022020772068806966
:1013B00010F4407F204602D0FFF7CAFF04E000F09F
:1013C000C9F8204600F05CF9257720680169C94317
:1013D000090716D4C168C943090712D46FF0080180
:1013E0000161042020772068C0698007204602D070
:1013F000FFF7AEFF04E000F0ADF8204600F040F942
:10140000257720680169C943C90617D4C168C94353
:10141000C90613D46FF010010161082020772068FD
:10142000C06910F4407F204602D0FFF791FF04E02E
:1014300000F090F8204600F023F925772068016934
:10144000C943C90708D1C168C943C90704D1891E66
:101450000161204600F032FA20680169C94309069B
:1014600009D4C168C943090605D46FF08001016140
:101470002046FFF705FE20680169C943490609D4E3
:10148000C168C943490605D46FF040010161204697
:1014900000F015FA20680169C94389060BD4C168B8
:1014A000C943890607D46FF0200101612046BDE8D9
:1014B0007040FFF7E6BD70BD70B586B004461421DC
:1014C0006846FEF7B5FE1D4E256800231C49022222
:1014D00003241C48B54209D10D6845F001050D6093
:1014E000096801F001010591402121E0164EB54245
:1014F00012D1086840F0080008600868694600F0EA
:1015000008000590A8148DE81D001048CDF81020A3
:10151000FFF75EF906B070BD0D4EB542FAD10D6809
:1015200045F001050D60096801F0010105910121F7
:101530008DE81E0069460492EAE7000000040040BE
:10154000303802400000024000080040000C024019
:10155000000C0040704770B5044690F83C0000262F
:101560000D4601280FD0012084F83C006AB1042AFE
:101570001DD0082A2FD00C2A3FD00126002084F845
:101580003C00304670BD022070BD206800F018FF9E
:101590002068816941F0080181612068816921F03A
:1015A00004018161206881692A69114311E0206882
:1015B00000F036FF2068816941F400618161206894
:1015C000816921F480618161206881692A6941EA29
:1015D00002218161D2E7206800F058FF2068C169CC
:1015E00041F00801C1612068C16921F00401C161B5
:1015F0002068C1692A69114311E0206800F07AFF70
:101600002068C16941F40061C1612068C16921F4A9
:101610008061C1612068C1692A6941EA0221C16112
:10162000ACE710B5040003D094F83D0010B107E01A
:10163000012010BD002084F83C00204600F01EF878
:10164000022084F83D00211D206800F035FE0120B5
:1016500084F8460084F83E0084F83F0084F8400097
:1016600084F8410084F8420084F8430084F8440080
:1016700084F8450084F83D00002010BD704700004C
:1016800070B52C492C4A00252C4C884216D10221D9
:101690001046FFF795F96061A178084300D16563B2
:1016A000E06B411CE163616B884242DB0021214811
:1016B000E56300F0C5F8E06CA06232E020498842A2
:1016C00016D110211046FFF77BF9E060E17808435E
:1016D00000D1A563206C411C2164A16B884228DBEA
:1016E00000211748256400F0ABF8206DE06218E097
:1016F000144988421DD104211046FFF761F9206189
:101700006178084300D12563606C411C6164216BE2
:1017100088420EDB00210B48656400F091F8A06C54
:101720006062BDE870400A2301220449064800F0C7
:10173000F3BA70BD680400200010024000000020D1
:10174000B0040020F80400204005002030B500253A
:101750000446022249B1042912D008294CD094F839
:101760004100012853D0012030BD94F83E000128EB
:10177000F9D184F83E202068C26842F0020209E0F4
:1017800094F83F000128EED184F83F202068C26819
:1017900042F00402C2600122206800F0F1FD2149FC
:1017A0002068214A884201D0904203D1436C43F41F
:1017B000004343642068884213D0B0F1804F10D0BA
:1017C0001A4988420DD01A4988420AD019498842DC
:1017D00007D0904205D01849884202D01749884264
:1017E00004D1816801F00701062903D0016841F0A6
:1017F00001010160284630BD94F840000128B2D1B3
:1018000084F840202068C26842F00802C2E784F8E9
:1018100041200C2901D00125ECE72068C26842F084
:101820001002B7E70000014000040140000400403E
:1018300000080040000C004000400140001800403B
:1018400030B504460D460068002200F099FD194BA2
:1018500041F2111120688A10984202D0164B98422A
:1018600009D1036A0B4206D1036A134203D1436CC8
:1018700023F4004343642068036A0B4206D1016AE3
:10188000114203D1016821F00101016001203DB145
:10189000042D08D0082D09D084F84100002030BD67
:1018A00084F83E00FAE784F83F00F7E784F8400048
:1018B000F4E7000000000140000401407047704759
:1018C000704710B504460068406994F83D10C0F3B5
:1018D000C010212911D180B12068143050E8001FB8
:1018E00021F0800140E80012002AF5D1606B08B1B8
:1018F000FEF794FD204600F010FF2068406994F840
:101900003E10C0F38010222911D180B1206814301C
:1019100050E8001F21F0400140E80012002AF5D1F4
:10192000A06B08B1FEF77AFD204600F0CFFE002044
:1019300010BD7047F8B5016804460868CA684B696D
:1019400010F00F0F4FF000055AD003F0010602F41B
:101950009077374365D0C10705D0D10503D5216CF9
:1019600041F001012164410705D5D90703D0216C5D
:1019700041F002012164810705D5D90703D0216C0C
:1019800041F004012164010707D502F02001314331
:1019900003D0216C41F008012164216C00293BD067
:1019A000800604D5900602D5204600F0C4FE2068CB
:1019B0004069216CC0F3801001F00801014320460A
:1019C0002BD000F083FE20684069400621D52068B6
:1019D000143050E8001F21F0400140E80012002AB6
:1019E000F5D1A06BA8B16C490165A06BFEF75FFD56
:1019F000002811D0A06B016D01B0BDE8F040084790
:101A000083060ED593060CD52046BDE8F84000F0BD
:101A100092BE2046FFF78DFFF8BDFFF78AFF2564D1
:101A2000F8BD266B2023012E79D1C60677D5D606C0
:101A300075D50868486800904869400640D5A16B94
:101A4000086840680004000CEAD0A28D8242E7D901
:101A5000E085C869B0F5807F2DD020680C3050E853
:101A6000001F21F4807140E80012002AF5D120689F
:101A7000143050E8001F21F0010140E80012002A54
:101A8000F5D12068143050E8001F21F0400140E8F3
:101A90000012002AF5D184F83E30256320680C300E
:101AA00050E8001F21F0100140E80012002AF5D193
:101AB000A06BFEF7B3FCA08DE18D401A81B229E046
:101AC000A08DE18D401A81B2E08D0028A8D00029B8
:101AD000A6D020680C3050E8002F22F4907240E825
:101AE0000026002EF5D12068143050E8002F22F097
:101AF000010240E80026002EF5D184F83E3025632F
:101B000020680C3050E8002F22F0100240E800233B
:101B1000002BF5D12046FFF7D3FEF8BDFFE7050601
:101B20002BD5150629D594F83D002128F5D1A068BC
:101B3000B0F5805F01D12069B0B1206A411C2162FB
:101B4000216800784860E08C401E0004000CE084AE
:101B5000E3D12068C16821F08001C1602068C168BC
:101B600041F04001C160D8E7206A0088C0F3080056
:101B70004860206A801C2062E5E74006CDD550060B
:101B8000CBD5CA68204622F04002CA6084F83D30B6
:101B900000F062F9C1E700008B25000870B5040071
:101BA00004D094F83D00002510B106E0012070BD7E
:101BB00084F83C50204600F023F8242084F83D00AF
:101BC0002068C16821F40051C160204600F014FE75
:101BD0002068016921F4904101612068416921F088
:101BE0002A0141612068C16841F40051C160256447
:101BF000202084F83D0084F83E00002070BD0000E5
:101C00002DE9F04186B0064614216846FEF710FB28
:101C10003049306888425AD12F480024016841F089
:101C200010010160006800F0100005902A48143887
:101C3000016841F0010101600068694600F001009F
:101C400005904FF4C06000900220CDE9010403200C
:101C50000390072004902148FEF7BAFD214D20484B
:101C60004FF000672860C5E901744FF48068C5E94A
:101C700003486C61AC61EC612C6228466C62FEF733
:101C8000F9FC08B1FEF77AFBB563AE63154D144855
:101C900060357830E5E802074020A5E81101C00270
:101CA00045F81449AC61C5E907400E486C626030E4
:101CB000FEF7E0FC08B1FEF761FB7563002201212D
:101CC0002520AE63FEF7F6FE2520FEF7E5FE06B002
:101CD000BDE8F0810010014044380240000002409D
:101CE000406402408405002090F83E30202B0ED145
:101CF00059B152B190F83C30012B08D0012380F843
:101D00003C300023036300F0FDBD0120704702203A
:101D100070477047704700002DE9F843044690F87B
:101D20003D001F4616460D4620284CD1C5B1BEB118
:101D300094F83C00012846D0012084F83C004FF084
:101D40000008C4F84080212084F83D00FEF742FEE0
:101D5000A6848146E684A068B0F5805F03D004E0E5
:101D60000120BDE8F883206928B12E465FF0000508
:101D700084F83C800EE00026FAE78021204600F03F
:101D800009FEA0B9AEB116F8010B21684860E08CDD
:101D9000401EE084E08C4B464FF000020097002884
:101DA000EBD14FF04001204600F0F4FD30B10320AC
:101DB000D7E735F8020BC0F30800E6E7202084F8E7
:101DC0003D000020CDE70220CBE7000070B50446BF
:101DD00090F83D00202836D191B38AB394F83C00A6
:101DE000012830D0012084F83C002162A284E284E2
:101DF00000252564212084F83D00636B1348D863D7
:101E0000636B13481864636B1248D864606B1346A5
:101E100005652668606B321DFEF796FC21686FF041
:101E20004000086084F83C502068143050E8001FDF
:101E300041F0800140E80012002AF5D1002070BD79
:101E4000FFE70120FBE70220F9E7000081260008F8
:101E5000C32600089B25000870477047FEE7000076
:101E60000D4808B5016841F4800101600068002256
:101E700000F48000009011463A20FEF71BFE3A2045
:101E8000FEF70AFE002211464620FEF713FEBDE8CB
:101E900008404620FEF700BE303802402DE9F04FE2
:101EA00087B014216846FEF7C3F94648002401684C
:101EB00041F010010160016801F010010591016815
:101EC00041F004010160016801F00401059101681D
:101ED00041F080010160016801F080010591016815
:101EE00041F001010160016801F001010591016803
:101EF00041F002010160016801F0020105910168F1
:101F000041F0080101600068DFF8BC9000F00800B3
:101F10000590012282214846FEF757FDDFF8ACA06C
:101F20004FF48057002239465046FEF74EFDDFF849
:101F3000A0B04FF40058012241465846FEF745FD37
:101F4000162000904FF404100125CDE901056946E3
:101F50002048FEF73DFC82200226CDE90005CDE9B0
:101F6000024669464846FEF733FC0097CDE9015426
:101F7000694650460394FEF72BFCCDF8008003968B
:101F8000CDE9015469465846FEF722FC002211466D
:101F90000720FEF78FFD0720FEF77EFD0022114689
:101FA0000820FEF787FD0820FEF776FD0022114687
:101FB0000A20FEF77FFD0A20FEF76EFD07B0BDE8A0
:101FC000F08F000030380240000002400004024060
:101FD000000C02400010024010B58EB0002407949F
:101FE000089409940A940B941C2168460C94FEF7FB
:101FF0001FF91F481D490160A721C0E90114642190
:10200000C0E9031480218161FFF784F808B1FEF76D
:10201000B5F94FF48050079007A91548FFF72AF942
:1020200008B1FEF7ABF91248FFF7FBFA08B1FEF76B
:10203000A5F90B940BA90E480C94FFF723F808B1EF
:10204000FEF79CF9602000903220CDE901040022C7
:10205000694607480494FFF77EFA08B1FEF78EF947
:102060000348FFF729FA0EB010BD0000000400403D
:102070006804002010B58EB00024079408940994D9
:102080000A940B941C2168460C94FEF7D1F81F4863
:102090001D490160A721C0E901146421C0E90314AE
:1020A00080218161FFF736F808B1FEF767F94FF438
:1020B0008050079007A91548FFF7DCF808B1FEF734
:1020C0005DF91248FFF7ADFA08B1FEF757F90B9426
:1020D0000BA90E480C94FEF7D5FF08B1FEF74EF998
:1020E000602000903220CDE90104002269460748B3
:1020F0000494FFF730FA08B1FEF740F90348FFF700
:10210000DBF90EB010BD000000080040B004002054
:1021100010B58EB000240794089409940A940B9487
:102120001C2168460C94FEF783F81F481D49016086
:10213000A721C0E901146421C0E903148021816151
:10214000FEF7E8FF08B1FEF719F94FF48050079049
:1021500007A91548FFF78EF808B1FEF70FF91248E6
:10216000FFF75FFA08B1FEF709F90B940BA90E48C7
:102170000C94FEF787FF08B1FEF700F9602000908D
:102180003220CDE901040022694607480494FFF794
:10219000E2F908B1FEF7F2F80348FFF78DF90EB047
:1021A00010BD0000000C0040F80400200C4810B5E1
:1021B0000A4901604FF416514160002181600C22F0
:1021C000C160C0E904128161C161FFF7E7FC00282A
:1021D00003D0BDE81040FEF7D1B810BD001001409B
:1021E00040050020FEE7FEE770477047FEF7F8BBAA
:1021F00030B593B030216846FEF71AF814210CA8C8
:10220000FEF716F81D480025016841F08051016075
:10221000006800F0805011901948016841F4804135
:1022200001600068022400F48040119001200390B6
:1022300010200490009406940820CDE90750A820AF
:10224000CDE9090404200B906846FEF74FFD08B164
:1022500072B6FEE70CA90F2081E831004FF4A050C0
:102260000F904FF48050109005210CA8FEF754FCFD
:10227000002801D072B6FEE713B030BD40380240EE
:10228000007000400248016841F47001016070472D
:1022900088ED00E00148FFF75CB80000680400200A
:1022A0000148FFF756B80000B00400200148FFF7CE
:1022B00050B80000F8040020F0B50268254C264D07
:1022C000264E274F274B4FF0804CA04209D0604547
:1022D00007D0A84205D0B04203D0B84201D09842FE
:1022E00004D122F0700E4A6842EA0E02A0421BD0CE
:1022F000604519D0A84217D0B04215D0B84213D0CB
:10230000984211D0184DA8420ED0184DA8420BD0BB
:10231000174DA84208D0174DA84205D0164DA84227
:1023200002D0164DA84203D122F44075CA682A4350
:102330004D6922F080022A4302608A68C2620A68FC
:102340008262A04201D0984201D109690163012152
:102350004161F0BD00000140000400400008004061
:10236000000C0040000401400040014000440140D6
:102370000048014000180040001C004000200040C0
:1023800010B501F01F030121046A99408C430462D7
:10239000016A9A401143016210BD10B5846842EA97
:1023A000032224F47F440A432243826010BD8268E2
:1023B00022F070020A4342F007018160704700007A
:1023C000F0B5026A22F001020262036A426884697F
:1023D000124E24F073050C682C4323F002058B6821
:1023E0002B430D4DA84201D0B04205D123F0080780
:1023F000CB683B4323F00403A84201D0B04205D18F
:102400004D6922F4407215438A692A43426084610F
:10241000496841630362F0BD0000014000040140CF
:10242000F0B5026A22F010020262026A436884690F
:102430000D6824F4E64444EA05248D6822F0200265
:1024400042EA05120F4D104EA84201D0B04206D10B
:10245000CF6822F0800242EA071222F04002A8422E
:1024600001D0B04207D14D6923F4406343EA8503AC
:102470008D6943EA85034360846149688163026230
:10248000F0BD00000000014000040140F0B5026A08
:1024900022F480720262026A4368C46922F4007204
:1024A00024F073050C68124E2C438D6842EA052215
:1024B0000E4DA84201D0B04206D1CF6822F400628E
:1024C00042EA072222F48062A84201D0B04207D13A
:1024D0004D6923F4405343EA05138D6943EA05131C
:1024E0004360C4614968C1630262F0BD00000140FD
:1024F0000004014030B5026A22F480520262046A8C
:102500004268C3690D6823F4E64343EA05238D68F6
:1025100024F4005444EA0534084DA84202D0084D82
:10252000A84204D14D6922F4804242EA85124260F9
:10253000C36149680164046230BD000000000140CD
:102540000004014010B5036A046A24F00104046227
:10255000846924F0F00444EA021423F00A020A43D6
:102560008461026210BD10B5036A23F01003036298
:102570008369046A23F4704343EA023224F0A0031F
:1025800043EA01118261016210BD10B5806B002128
:10259000C185C184FFF7CDF910BD70B5846B20688B
:1025A000406994F83D10C0F3C0100025212904D1E2
:1025B00018B1E584204600F0B0F82068406994F82E
:1025C0003E10C0F38010222904D118B1E5852046C1
:1025D00000F07CF8206C40F0100020642046FFF7EB
:1025E000A8F970BD10B50146806B09680968C90576
:1025F0002FD40021C18501680C3151E8002F22F44D
:10260000807241E80023002BF5D10168143151E8B4
:10261000002F22F0010241E80023002BF5D10168D0
:10262000143151E8002F22F0400241E80023002B32
:10263000F5D1202180F83E10016B012909D10168F4
:102640000C3151E8002F22F0100241E80023002B4A
:10265000F5D1016B012902D0FFF75BFB10BD818D25
:10266000FFF72EF910BD10B5806B016B012902D068
:10267000FFF750FB10BD818D4908FFF721F910BD10
:1026800010B50146806B09680968C90516D4002198
:10269000C1840168143151E8002F22F0800241E822
:1026A0000023002BF5D101680C3151E8002F42F0D6
:1026B000400241E80023002BF5D110BDFFF7CCFB11
:1026C00010BD10B5806BFFF7C8FB10BD01680C3161
:1026D00051E8002F22F4907241E80023002BF5D13D
:1026E0000168143151E8002F22F0010241E8002373
:1026F000002BF5D1016B012909D101680C3151E89A
:10270000002F22F0100241E80023002BF5D12021F8
:1027100080F83E1000210163704701680C3151E8D8
:10272000002F22F0C00241E80023002BF5D1202128
:1027300080F83D10704708B590F83E10222901D06E
:10274000022008BD82684FF480539A4201D101698A
:1027500021B1816A9A421BD04AB10AE00268816ABB
:102760005268C2F308020A80816A891C08E0026983
:1027700072B10268526802F07F020A70816A491CD5
:102780008162C18D491E0904090CC18503D019E07D
:1027900002685268F1E70168CA6822F02002CA6044
:1027A0000168CA6822F48072CA6001684A6922F02E
:1027B00001024A61202180F83E10016B012903D0FB
:1027C000FFF7A7FA002008BD0021016301680C3162
:1027D00051E8002F22F0100241E80023002BF5D130
:1027E00001680A68D20602D50A6849680091818D9D
:1027F000FFF766F8E6E7000070B504460068016977
:10280000E26821F44051114301612169A068E26945
:1028100008436169114308432168CA6849F20C639F
:102820009A430243CA6020684169A26921F4407159
:102830001143416131492068884202D030498842C1
:1028400002D1FEF713FA01E0FEF700FAE269002375
:10285000192164253226B2F5004F626828D0A0FB0A
:102860000101930F9200FDF7ABFC0146B0FBF5F0C0
:102870006FF01802504301EB800006EB0010B0FB34
:10288000F5F000F0F002B1FBF5F002EB0012B1FB45
:10289000F5F06FF01803584301EB800006EB0010D1
:1028A000B0FBF5F000F00F0021681044886070BDA7
:1028B000A0FB010192185B41FDF782FC0146B0FBD1
:1028C000F5F00201B1FBF5F06FF01803584301EB8E
:1028D000800006EBC000B0FBF5F000F0F80002EB62
:1028E0004002B1FBF5F0584301EB800006EBC0005D
:1028F000B0FBF5F000F00700D6E700000010014043
:102900000014014038B581628285002513460446D3
:102910000564222084F83E00A26B1B48D063A26BA2
:102920001A481064A26B1A48D064A06B0A46056569
:102930002168A06B091DFDF707FF2068016840684A
:10294000009084F83C5020680C3050E8001F41F49F
:10295000807140E80012002AF5D12068143050E858
:10296000001F41F0010140E80012002AF5D1206863
:10297000143050E8001F41F0400140E80012002AE6
:10298000F5D1002038BD0000E525000867260008C5
:102990009B2500082DE9F041984617460E4604464F
:1029A000069D27E0681C25D02DB1FEF713F8A0EB9B
:1029B0000800A8421ED920680C3050E8001F21F4FE
:1029C000D07140E80012002AF5D12068143050E898
:1029D000001F21F0010140E80012002AF5D120205B
:1029E00084F83D0084F83E00002084F83C00032079
:1029F000BDE8F0812068006836EA000004D00020BD
:102A0000B842CFD00020F3E70120F9E72DE9F84FD5
:102A10007D4800680168C943C90670D401684068F0
:102A200000907948FEF74DFF784800684068784983
:102A3000C0F5806082B2086076497348FFF7C6F936
:102A40007448017850297DD1C17A6029FBD1C278C0
:102A5000017902EBC20303EB021201EB82086E491B
:102A60008646DFF8C8C1C1F800808279C17902EBDF
:102A7000C20303EB021201EB8201684A89466C4FE4
:102A80001160417A827A01EBC10303EB011102EB81
:102A900081036349634A674C0B609EF801006249F9
:102AA000654D664EC2469B46502806D0512810D030
:102AB000F04652287AD060208EE000201070087016
:102AC0008CF800004FF47A7020602860306050204D
:102AD00082E0DFF86CA1DAF80000A8EB0000002823
:102AE00001DD012300E000231370564BD3F8008072
:102AF000A9EB0802002A03DD4FF0010802E077E0AD
:102B00004FF00008DFF8409181F80080DFF810E115
:102B1000D9F80080ABEB0801002902DD4FF0010875
:102B200001E04FF000088CF800802060DFF8EC80B6
:102B30002A609A46F3463160B8B9642301224349BA
:102B4000314800E049E0FFF7E7F8206868B96423FE
:102B500001223E492C48FFF7DFF8206828B964239A
:102B600001223A492848FFF7D7F82B480168344832
:102B70000068081A0028206800DC40422060D8F86D
:102B80000010DAF80000081A0028286800DC40422B
:102B90002860DBF80010D9F80000081A0028306817
:102BA00000DC40423060512016E0FFE798F8020058
:102BB00018B30020107098F8050000B300200870CA
:102BC0009EF80800E8B100208CF80000C4F800A0CE
:102BD000C5F800905220336038600D4801680D48F8
:102BE000FDF726FB4FF480620A490748FFF77CF89F
:102BF000BDE8F84F0448FEF79DBE0120DAE701204A
:102C0000DDE70120E0E7000040050020840500200A
:102C10005400002068000020480000204C000020E4
:102C200050000020010000200200002003000020CE
:102C300008000020180000201C00002020000020B8
:102C400024000020280000202C000020000000208C
:102C5000FEE70907090E002804DB00F1E02080F8F8
:102C60000014704700F00F0000F1E02080F8141D00
:102C7000704702E008C8121F08C1002AFAD1704745
:102C80007047002001E001C1121F002AFBD17047EC
:102C900008B5FDF7ADFEFFF7ABFAFFF7FFF8FFF75A
:102CA000DFF8FFF799F9FFF7E5F9FFF731FAFFF7DA
:102CB0007DFA14480068016841680091C16841F0DC
:102CC0001001C1604FF480620F490E48FFF70CF805
:102CD0000E48FEF793FA0E48FEF790FA0D48FEF7FD
:102CE0008DFA0D4C5525A068502803D0512801D0ED
:102CF0005228F8D1A560FDF743FBFDF75BFBFDF71C
:102D000073FBF0E740050020680000206804002005
:102D1000B0040020F8040020000000200006101677
:102D2000000610160000000000000000010203046D
:102D30000607080900000000010203045C2D0008DA
:102D40000000002068000000722C0008C42D00085C
:102D500068000020E0090000822C0008FF0000004D
:102D600040010000550000000000000000000000CD
:102D70000000000000000000000000000000000053
:102D80000000000000000000000000000000000043
:102D90000000000000000000000000000000000033
:102DA0000000000000000000000000000000000023
:102DB0000000000001000000100000000000000002
:042DC0000024F400F7
:040000050800018965
:00000001FF
